:030000000208955E
:0C089500787FE4F6D8FD7581480208DC8D
:100AA30014350084009F00C80089009300A100A0B2
:100AB300008F00800081C1800221006402230000B6
:100AC300022F000002330000022D0000023100005B
:040AD30002250001F7
:100B2B00120AD8120B9C120B73120B85120A681245
:0E0B3B000AD8120B497F147E00120B0880F1BD
:070B9C00C2B7D2B1D2B022B2
:100B7300D2A9758902758C1F758A1FD28CD2A9D20E
:020B8300AF229F
:0F0B8500D2AB438910120BA3D28ED2ABD2AF22C8
:070BA300758D03758B8E2296
:100AD800A20030B001B350277F327E00120B08A26B
:100AE8000030B001B35018A2B09200300008752150
:100AF8000075226480067521037522E8120A6822AF
:100B490030B7137F14800530B7097F0A7E00120B76
:070B59000880F4120B942246
:080B9400E4F523F524020A68D0
:100A6800E522B4E82AE521B40325AE23AF247C03AC
:100A78007DE81209B87E007F0A1209A6E5302FF535
:100A880034E52F3EF533AD22AC21AF34FE8008ADFE
:0B0A980022AC21AF24AE231209212262
:10092100AB05AA048F828E837C007D0A1209B88CE4
:10093100278D287C007D0AAF82AE831209B87C0026
:100941007D0A1209B88C298D2A7C007D64AF82AEA4
:10095100831209B87C007D0A1209B88C2B8D2CAE4C
:1009610083AF827C037DE81209B87C007D0A1209FD
:10097100B88C2D8D2EEB64014A7005F531F53222CC
:10098100EB640A4A7006F53175320222EB64644A5F
:100991007006F53175320322BA0309BBE8067531D9
:0509A100007532042284
:10080000D2B5D2B4D2B3D2B2E5257072E52624FEB9
:10081000602314603914604F24037062E52825E0DA
:100820002435F808E6F590E532640145317002C2DE
:1008300097C2B58049E52A25E02435F808E6F59009
:10084000E532640245317002C297C2B48030E52CB3
:1008500025E02435F808E6F590E53264034531706B
:1008600002C297C2B38017E52E25E02435F808E6CA
:10087000F590E532640445317002C297C2B2E526B4
:10088000640445257006F525752601220526E52612
:050890007002052522A5
:100B0800E4FDFCC3ED9FEC9E5018E4FBFAE4F50805
:100B18000BBB00010ABA04F5BBFBF20DBD00010CCA
:020B280080E16A
:010B2A0022A8
:03000B00020B6085
:100B6000C0E0C0D075D000C000120800D000D0D0C6
:030B7000D0E032A0
:03001B00020A0DC9
:100A0D00C0E0C0F0C083C082C0D075D000C000C0AF
:100A1D0001C002C003C004C005C006C00730B11D2F
:100A2D000530E5307002052F640A452F700CF52F47
:100A3D00F5300524E52470020523120A68120BA374
:100A4D00D007D006D005D004D003D002D001D000FD
:0B0A5D00D0D0D082D083D0F0D0E032A7
:1008A100020B2BE493A3F8E493A34003F68001F237
:1008B10008DFF48029E493A3F85407240CC8C33358
:1008C100C4540F4420C8834004F456800146F6DF27
:1008D100E4800B0102040810204080900AA3E47E0A
:1008E100019360BCA3FF543F30E509541FFEE4931C
:1008F100A360010ECF54C025E060A840B8E493A3E3
:10090100FAE493A3F8E493A3C8C582C8CAC583CA0D
:10091100F0A3C8C582C8CAC583CADFE9DEE780BEC5
:010AD700001E
:1009A600EF8DF0A4A8F0CF8CF0A428CE8DF0A42E65
:0209B600FE221F
:1009B800BC000BBE0029EF8DF084FFADF022E4CC23
:1009C800F875F008EF2FFFEE33FEEC33FCEE9DECEC
:1009D800984005FCEE9DFE0FD5F0E9E4CEFD22ED32
:1009E800F8F5F0EE8420D21CFEADF075F008EF2F7C
:1009F800FFED33FD4007985006D5F0F222C398FD6D
:050A08000FD5F0EA2209
:00000001FF
