:030000000208955E
:0C089500787FE4F6D8FD7581440208DC91
:100A410014310084009F00C80089009300A100A018
:100A5100008F00800081C100022304CE02210064C6
:0C0A6100022D0000022F00000225000101
:100A6E00D2A9758902758A1F758C1FD28CD2A9D214
:100A7E00AFC2B7120ADE120AF1120AB67F147E0056
:050A8E00120A9380F143
:010AF10022E2
:100AB60030B711800330B7097F327E00120A938067
:050AC600F4120AE92210
:080AE900E4F523F524020ADE06
:0B0ADE00AD22AC21AF24AE23020921A1
:10092100AB05AA048F828E837C007D0A1209A68CF6
:10093100278D287C007D0AAF82AE831209A67C0038
:100941007D0A1209A68C298D2A7C007D64AF82AEB6
:10095100831209A67C007D0A1209A68C2B8D2CAE70
:1009610083AF827C037DE81209A67C007D0A12090F
:10097100A68C2D8D2EEB64014A7005F52FF53022E2
:10098100EB640A4A7006F52F75300222EB64644A63
:100991007006F52F75300322BA0309BBE806752FDF
:0509A100007530042286
:10080000D2B5D2B4D2B3D2B2E5257072E52624FEB9
:10081000602314603914604F24037062E52825E0DA
:100820002431F808E6F590E5306401452F7002C2E6
:1008300097C2B58049E52A25E02431F808E6F5900D
:10084000E5306402452F7002C297C2B48030E52CB7
:1008500025E02431F808E6F590E5306403452F7073
:1008600002C297C2B38017E52E25E02431F808E6CE
:10087000F590E5306404452F7002C297C2B2E526B8
:10088000640445257006F525752601220526E52612
:050890007002052522A5
:100A9300E4FDFCC3ED9FEC9E5018E4FBFAE4F5087B
:100AA3000BBB00010ABA04F5BBFBF20DBD00010C40
:020AB30080E1E0
:010AB500221E
:03000B00020ACB1B
:100ACB00C0E0C0D075D000C000120800D000D0D05C
:030ADB00D0E03236
:03001B000209FBDC
:1009FB00C0E0C0F0C083C082C0D075D000C000C0C2
:100A0B0001C002C003C004C005C006C00730B10B53
:100A1B000524E52470020523120ADED007D006D088
:100A2B0005D004D003D002D001D000D0D0D082D0DA
:060A3B0083D0F0D0E03290
:1008A100020A6EE493A3F8E493A34003F68001F2F5
:1008B10008DFF48029E493A3F85407240CC8C33358
:1008C100C4540F4420C8834004F456800146F6DF27
:1008D100E4800B0102040810204080900A41E47E6C
:1008E100019360BCA3FF543F30E509541FFEE4931C
:1008F100A360010ECF54C025E060A840B8E493A3E3
:10090100FAE493A3F8E493A3C8C582C8CAC583CA0D
:10091100F0A3C8C582C8CAC583CADFE9DEE780BEC5
:010A6D000088
:1009A600BC000BBE0029EF8DF084FFADF022E4CC35
:1009B600F875F008EF2FFFEE33FEEC33FCEE9DECFE
:1009C600984005FCEE9DFE0FD5F0E9E4CEFD22ED44
:1009D600F8F5F0EE8420D21CFEADF075F008EF2F8E
:1009E600FFED33FD4007985006D5F0F222C398FD7F
:0509F6000FD5F0EA221C
:00000001FF
