:0400000002002132A7
:03000B000203DF0E
:0100130032BA
:03001B00020437A5
:20007A0075228475239F7524C87525897526937527A17528A075298F752A80752B81752CDA
:1F009A0064752D00E4F52EF52FF530F531F538F539F53AF53B753C01F53DD20002001E3B
:03001E000200B924
:2000B9001201241200FA758911D2A9300008758CD8758AF08006758CFC758A2FD2B9D28CC0
:2000D900D2A9D2AB758DF8758B30D28ED2ABD2AF1201531201241201379000021203B480C5
:2000F900F2C2B7D2B1D2B022D2AB758DF8758B30C28ED2ABD2AF22D2A9758911758CFC7542
:200119008A2FD2B9D28CD2A9D2AF22A20020B001B3400A9000021203B4A2B092012230B74D
:200139000C9000011203B430B70302014722E4F52EF52FF530F531020153A200200101B3A7
:2001590050030201E830015C752C64752D007508E8750903852E82852F8312047F75080AA6
:200179007509001204C58582088583099003E81204A8AE82AF8375080A7509008530828591
:200199003183C007C00612047F7508E87509031204C5AC82AD83D006D007EC2EF52EED3F3B
:2001B900F52F8027752CE8752D037508E8750903852E82852F831204C58582088583099050
:2001D900000A1204A8858230858331A201920074E8B52C147403B52D0F852C3E852D3F857B
:2001F9003082853183020210852C3E852D3F852E82852F83020210AE82AF8375080A750920
:2002190000C007C0061204C5858232858333D006D00775080A7509008E828F83C007C00688
:2002390012047F75080A7509001204C5858234858335D006D0077508647509008E828F838A
:20025900C007C00612047F75080A7509001204C5858236858337D006D007C3EE94E8EF94AA
:2002790003501474E8B53E077403B53F02800875380A753900801C7508E87509038E828F2D
:200299008312047F75080A7509001204C58582388583397401B53E06E4B53F02800280067D
:2002B900E4F53AF53B22740AB53E06E4B53F0280028007753A02753B00227464B53E06E42E
:2002D900B53F0280028007753A03753B002274E8B53E0B7403B53F06753A04753B0022D260
:2002F900B5D2B4D2B3D2B2C37404953CE4953D5003020397E53C75F003A4900317730203A1
:200319009702032602034002035A020374E5322422F987907401B53A06E4B53B0280028036
:2003390002C297C2B58057E5342422F987907402B53A06E4B53B0280028002C297C2B480F8
:200359003DE5362422F987907403B53A06E4B53B0280028002C297C2B38023740AB53806AE
:20037900E4B539028018E5382422F987907404B53A06E4B53B0280028002C297C2B27404F9
:20039900B53C06E4B53D0280028007753C01753D0022053CE4B53C02053D22AE82AF837C8C
:2003B900007D00C3EC9EED9F501B7AF47B01EA24FFF8EB34FFF988028903E84970F00CBCEE
:2003D90000E10D80DE22C0E0C0D030B14C300010052EE4B52E02052F758CD8758AF0803948
:2003F9000530E4B5300205317410B530267427B53121E4F530F53174E8252EF52E740335D0
:200419002FF52FC3E52E9410E52F94274005E4F52EF52F758CFC758A2FD0D0D0E032C02129
:20043900C0E0C0F0C082C083C007C006C005C004C003C002C001C000C0D075D00012015377
:200459001202F8758DF8758B30D0D0D000D001D002D003D004D005D006D007D083D082D09C
:06047900F0D0E0D02132BA
:20047F007A10E4FBFCE58225E0F582E58333F583EB33FBEC33FCEB9508F5F0EC9509400691
:09049F00FCABF0438201DADD221E
:06005000E478FFF6D8FD84
:20002E007900E94400601B7A00900516780175A000E493F2A308B8000205A0D9F4DAF2755D
:02004E00A0FF11
:1D04A800E5828508F0A4C582C0F08509F0A4D0F025F0C5838508F0A42583F5832216
:2004C500E508450960467A01E50825E0F508E509334012F509E5829508E583950940030A04
:2004E50080E6C3E50913F509E50813F508C3E5829508F5F0E58395094005F58385F082C3A9
:0D050500E50913F509E50813F508DAE12210
:200056007800E84400600A790175A000E4F309D8FC7800E84400600C7900900001E4F0A3A8
:04007600D8FCD9FADF
:0D00210075813F120512E582600302001E8A
:0405120075820022CC
:00000001FF
