:0400000002002132A7
:03000B000203509D
:0100130032BA
:03001B0002038F4E
:20007A0075228475239F7524C87525897526937527A17528A075298F752A80752B81752CDA
:20009A0064752D00E4F52EF52FF530F531F532F533F53AF53BF53CF53D753E01F53FD200FF
:0300BA0002001E23
:03001E000200BD20
:2000BD001201091200DA1200E11200F312015712010912013790001412032580F2C2B7D2B8
:2000DD00B1D2B022D2A9758902758C1F758A1FD28CD2A9D2AF22D2AB438910120102D28EAB
:2000FD00D2ABD2AF22758D03758B8E22A20020B001B34025900032120325A20020B001B361
:20011D004017A2B092005008752C64752D008006752CE8752D030201572230B714900014B9
:20013D0012032530B70890000A12032580F502014F22E4F52EF52F02015774E8B52C3E7448
:20015D0003B52D397508E8750903852E82852F8312043B85820885830990000A12041EE5EE
:20017D00828583F02530F532E53135F0F533852C40852D418532828533830201A9852C4014
:20019D00852D41852E82852F830201A9AE82AF8375080A750900C007C00612043B858234B7
:2001BD00858335D006D00775080A7509008E828F83C007C0061203F575080A75090012045F
:2001DD003B858236858337D006D0077508647509008E828F83C007C0061203F575080A758A
:2001FD00090012043B858238858339D006D0077508E87509038E828F831203F575080A754D
:20021D00090012043B85823A85833B7401B54006E4B5410280028006E4F53CF53D22740AA8
:20023D00B54006E4B5410280028007753C02753D00227464B54006E4B5410280028007750D
:20025D003C03753D002274E8B5400B7403B54106753C04753D0022D2B5D2B4D2B3D2B2C33D
:20027D007404953EE4953F5003020308E53E75F003A4900293730203080202A20202BC02C2
:20029D0002D60202F0E5342422F987907401B53C06E4B53D0280028002C297C2B5804CE53D
:2002BD00362422F987907402B53C06E4B53D0280028002C297C2B48032E5382422F9879058
:2002DD007403B53C06E4B53D0280028002C297C2B38018E53A2422F987907404B53C06E489
:2002FD00B53D0280028002C297C2B27404B53E06E4B53F0280028007753E01753F00220539
:20031D003EE4B53E02053F22AE82AF837C007D00C3EC9EED9F501B7AFB7B04EA24FFF8EBC0
:20033D0034FFF988028903E84970F00CBC00E10D80DE22C021C0E0C0F0C082C083C007C05A
:20035D0006C005C004C003C002C001C000C0D075D000120274D0D0D000D001D002D003D0D8
:20037D0004D005D006D007D083D082D0F0D0E0D02132C021C0E0C0F0C082C083C007C0065F
:20039D00C005C004C003C002C001C000C0D075D00030B1240530E4B530020531740AB5303E
:2003BD0006E4B531028002800CE4F530F531052EB52E02052F120157120102D0D0D000D006
:1803DD0001D002D003D004D005D006D007D083D082D0F0D0E0D02132D4
:2003F5007A10E4FBFCE58225E0F582E58333F583EB33FBEC33FCEB9508F5F0EC950940061C
:09041500FCABF0438201DADD22A8
:06005000E478FFF6D8FD84
:20002E007900E94400601B7A0090048C780175A000E493F2A308B8000205A0D9F4DAF275E8
:02004E00A0FF11
:1D041E00E5828508F0A4C582C0F08509F0A4D0F025F0C5838508F0A42583F58322A0
:20043B00E508450960467A01E50825E0F508E509334012F509E5829508E583950940030A8E
:20045B0080E6C3E50913F509E50813F508C3E5829508F5F0E58395094005F58385F082C333
:0D047B00E50913F509E50813F508DAE1229B
:200056007800E84400600A790175A000E4F309D8FC7800E84400600C7900900001E4F0A3A8
:04007600D8FCD9FADF
:0D002100758141120488E582600302001E13
:040488007582002257
:00000001FF
